:100000000C942A000C9434000C9434000C943400AA
:100010000C9434000C9434000C9434000C94340090
:100020000C9434000C9434000C9434000C94340080
:100030000C9434000C9434000C9434000C94340070
:100040000C9434000C9434000C9434000C94340060
:100050000C94340011241FBECFE5D8E0DEBFCDBF25
:100060000E9436000C946D000C94000080E090E03B
:100070000E945D008FE39CE90197F1F700C000004A
:100080008FEF84BB81BB0E946900813311F4A89A71
:10009000FACF823311F4A898F6CF833311F4909AF3
:1000A000F2CF843311F49098EECF8C3411F49798FA
:1000B000EACF883441F7979AE6CF019729F487B3BE
:1000C000806B87BB6C9A01C0BE9A8DB183648DB979
:0E00D0000895779BFECF8FB10895F894FFCF6F
:00000001FF
