S00E00006D61737465722E737265638A
S11300000C942A000C9434000C9434000C943400A6
S11300100C9434000C9434000C9434000C9434008C
S11300200C9434000C9434000C9434000C9434007C
S11300300C9434000C9434000C9434000C9434006C
S11300400C9479000C9434000C9434000C94340017
S11300500C94340011241FBECFE5D8E0DEBFCDBF21
S11300600E94BC000C9418020C94000027B1282BA9
S113007027B98830910524F497B19E70892B87B9EC
S1130080089527B12F730024969587950794969524
S113009087950794982F802D822B87B90895339BD9
S11300A007C0339896B1987F892B86B9339A0895FF
S11300B096B1987F892B86B908950F931F93CF9398
S11300C0DF938B01EA010E943600C8010E944100BF
S11300D0CE010E944F00339A379ADF91CF911F913E
S11300E00F910895369A089584B125B190E0922B2A
S11300F008951F920F920FB60F9211242F933F93DE
S11301004F935F936F937F938F939F93AF93BF931B
S1130110EF93FF93349BFECF0E947400BC01990FB0
S1130120880B990B0E94F60023E130E44CE950E47B
S11301300E94360120E030E046E953E40E94310198
S1130140181624F488E40E94E20003C08CE40E94A0
S1130150E2000E947200FF91EF91BF91AF919F91D5
S11301608F917F916F915F914F913F912F910F905C
S11301700FBE0F901F901895789481E090E00E9434
S1130180D60047E050E060E070E080E090E00E943C
S11301905D000E94E6000E9472000E94F000C82FD9
S11301A00E94EC008C2F0E94E200F7CF019729F403
S11301B087B3806B87BB6C9A01C0BE9A8DB1836490
S11301C08DB908958FB9779BFECF08958AB1886160
S11301D08AB987E689B908955D9BFECF8CB90895E5
S11301E05F9BFECF8CB10895E89409C097FB3EF461
S11301F090958095709561957F4F8F4F9F4F992370
S1130200A9F0F92F96E9BB279395F69587957795ED
S11302106795B795F111F8CFFAF4BB0F11F460FFAD
S11302201BC06F5F7F4F8F4F9F4F16C0882311F005
S113023096E911C0772321F09EE8872F762F05C019
S1130240662371F096E8862F70E060E02AF09A95B4
S1130250660F771F881FDAF7880F9695879597F9A9
S113026008950E94A30108F48FEF08950E944901A4
S11302700C94DE010E94D00138F00E94D70120F0D6
S1130280952311F00C94C7010C94CD0111240C9406
S113029012020E94EF0170F3959FC1F3950F50E095
S11302A0551F629FF001729FBB27F00DB11D639F24
S11302B0AA27F00DB11DAA1F649F6627B00DA11DCA
S11302C0661F829F2227B00DA11D621F739FB00D70
S11302D0A11D621F839FA00D611D221F749F3327E0
S11302E0A00D611D231F849F600D211D822F762F79
S11302F06A2F11249F5750409AF0F1F088234AF056
S1130300EE0FFF1FBB1F661F771F881F91505040C1
S1130310A9F79E3F510580F00C94C7010C9412027A
S11303205F3FE4F3983ED4F3869577956795B79548
S1130330F795E7959F5FC1F7FE2B880F911D969562
S1130340879597F90895990F0008550FAA0BE0E8CF
S1130350FEEF16161706E807F907C0F01216130683
S1130360E407F50798F0621B730B840B950B39F4C3
S11303700A2661F0232B242B252B21F408950A2629
S113038009F4A140A6958FEF811D811D089597F969
S11303909F6780E870E060E008959FEF80EC089527
S11303A000240A9416161706180609060895002450
S11303B00A9412161306140605060895092E0394CA
S11303C0000C11F4882352F0BB0F40F4BF2B11F43E
S11303D060FF04C06F5F7F4F8F4F9F4F089557FD9D
S11303E09058440F551F59F05F3F71F04795880F9F
S11303F097FB991F61F09F3F79F087950895121636
S113040013061406551FF2CF4695F1DF08C01616E1
S113041017061806991FF1CF869571056105089492
S11304200895E894BB2766277727CB0197F90895A9
S1070430F894FFCF6A
S9030000FC
